{
  "contractName": "MyContract",
  "abi": [
    {
      "anonymous": false,
      "inputs": [
        {
          "indexed": true,
          "internalType": "address",
          "name": "to",
          "type": "address"
        },
        {
          "indexed": false,
          "internalType": "uint256",
          "name": "messageCount",
          "type": "uint256"
        }
      ],
      "name": "DebugMessageStored",
      "type": "event"
    },
    {
      "anonymous": false,
      "inputs": [
        {
          "indexed": true,
          "internalType": "address",
          "name": "from",
          "type": "address"
        },
        {
          "indexed": true,
          "internalType": "address",
          "name": "to",
          "type": "address"
        },
        {
          "indexed": false,
          "internalType": "string",
          "name": "content",
          "type": "string"
        },
        {
          "indexed": false,
          "internalType": "uint256",
          "name": "timestamp",
          "type": "uint256"
        }
      ],
      "name": "MessageSent",
      "type": "event"
    },
    {
      "inputs": [
        {
          "internalType": "address",
          "name": "_to",
          "type": "address"
        },
        {
          "internalType": "string",
          "name": "_content",
          "type": "string"
        }
      ],
      "name": "sendMessage",
      "outputs": [],
      "stateMutability": "nonpayable",
      "type": "function"
    },
    {
      "inputs": [],
      "name": "receiveMessagesContentWithSender",
      "outputs": [
        {
          "internalType": "string[]",
          "name": "",
          "type": "string[]"
        },
        {
          "internalType": "address[]",
          "name": "",
          "type": "address[]"
        }
      ],
      "stateMutability": "view",
      "type": "function",
      "constant": true
    }
  ],
  "bytecode": "0x608060405234801561001057600080fd5b50610e22806100206000396000f3fe608060405234801561001057600080fd5b50600436106100365760003560e01c80632d2bbf461461003b578063de6f24bb1461005a575b600080fd5b610043610076565b604051610051929190610b0a565b60405180910390f35b610074600480360381019061006f91906108af565b610445565b005b60608060008060003373ffffffffffffffffffffffffffffffffffffffff1673ffffffffffffffffffffffffffffffffffffffff16815260200190815260200160002080549050905060008167ffffffffffffffff811115610101577f4e487b7100000000000000000000000000000000000000000000000000000000600052604160045260246000fd5b60405190808252806020026020018201604052801561013457816020015b606081526020019060019003908161011f5790505b50905060008267ffffffffffffffff811115610179577f4e487b7100000000000000000000000000000000000000000000000000000000600052604160045260246000fd5b6040519080825280602002602001820160405280156101a75781602001602082028036833780820191505090505b50905060005b83811015610437576000803373ffffffffffffffffffffffffffffffffffffffff1673ffffffffffffffffffffffffffffffffffffffff168152602001908152602001600020818154811061022b577f4e487b7100000000000000000000000000000000000000000000000000000000600052603260045260246000fd5b9060005260206000209060040201600201805461024790610ceb565b80601f016020809104026020016040519081016040528092919081815260200182805461027390610ceb565b80156102c05780601f10610295576101008083540402835291602001916102c0565b820191906000526020600020905b8154815290600101906020018083116102a357829003601f168201915b50505050508382815181106102fe577f4e487b7100000000000000000000000000000000000000000000000000000000600052603260045260246000fd5b60200260200101819052506000803373ffffffffffffffffffffffffffffffffffffffff1673ffffffffffffffffffffffffffffffffffffffff168152602001908152602001600020818154811061037f577f4e487b7100000000000000000000000000000000000000000000000000000000600052603260045260246000fd5b906000526020600020906004020160000160009054906101000a900473ffffffffffffffffffffffffffffffffffffffff168282815181106103ea577f4e487b7100000000000000000000000000000000000000000000000000000000600052603260045260246000fd5b602002602001019073ffffffffffffffffffffffffffffffffffffffff16908173ffffffffffffffffffffffffffffffffffffffff1681525050808061042f90610d1d565b9150506101ad565b508181945094505050509091565b600073ffffffffffffffffffffffffffffffffffffffff168373ffffffffffffffffffffffffffffffffffffffff1614156104b5576040517f08c379a00000000000000000000000000000000000000000000000000000000081526004016104ac90610b73565b60405180910390fd5b600082829050116104fb576040517f08c379a00000000000000000000000000000000000000000000000000000000081526004016104f290610b93565b60405180910390fd5b600060405180608001604052803373ffffffffffffffffffffffffffffffffffffffff1681526020018573ffffffffffffffffffffffffffffffffffffffff16815260200184848080601f016020809104026020016040519081016040528093929190818152602001838380828437600081840152601f19601f8201169050808301925050505050505081526020014281525090506000808573ffffffffffffffffffffffffffffffffffffffff1673ffffffffffffffffffffffffffffffffffffffff16815260200190815260200160002081908060018154018082558091505060019003906000526020600020906004020160009091909190915060008201518160000160006101000a81548173ffffffffffffffffffffffffffffffffffffffff021916908373ffffffffffffffffffffffffffffffffffffffff16021790555060208201518160010160006101000a81548173ffffffffffffffffffffffffffffffffffffffff021916908373ffffffffffffffffffffffffffffffffffffffff16021790555060408201518160020190805190602001906106a29291906107ad565b506060820151816003015550508373ffffffffffffffffffffffffffffffffffffffff163373ffffffffffffffffffffffffffffffffffffffff167f7e49d574e0305424aa957cb3f69b25f92aa58d53fdee73f05e40019210a70bce85854260405161071093929190610b41565b60405180910390a38373ffffffffffffffffffffffffffffffffffffffff167f56b4da710c2f3fea1f19f196a1b23173a31bda61760f816d2682bad5589c47536000808773ffffffffffffffffffffffffffffffffffffffff1673ffffffffffffffffffffffffffffffffffffffff1681526020019081526020016000208054905060405161079f9190610bb3565b60405180910390a250505050565b8280546107b990610ceb565b90600052602060002090601f0160209004810192826107db5760008555610822565b82601f106107f457805160ff1916838001178555610822565b82800160010185558215610822579182015b82811115610821578251825591602001919060010190610806565b5b50905061082f9190610833565b5090565b5b8082111561084c576000816000905550600101610834565b5090565b60008135905061085f81610dd5565b92915050565b60008083601f84011261087757600080fd5b8235905067ffffffffffffffff81111561089057600080fd5b6020830191508360018202830111156108a857600080fd5b9250929050565b6000806000604084860312156108c457600080fd5b60006108d286828701610850565b935050602084013567ffffffffffffffff8111156108ef57600080fd5b6108fb86828701610865565b92509250509250925092565b60006109138383610933565b60208301905092915050565b600061092b8383610a42565b905092915050565b61093c81610c6d565b82525050565b600061094d82610bee565b6109578185610c29565b935061096283610bce565b8060005b8381101561099357815161097a8882610907565b975061098583610c0f565b925050600181019050610966565b5085935050505092915050565b60006109ab82610bf9565b6109b58185610c3a565b9350836020820285016109c785610bde565b8060005b85811015610a0357848403895281516109e4858261091f565b94506109ef83610c1c565b925060208a019950506001810190506109cb565b50829750879550505050505092915050565b6000610a218385610c5c565b9350610a2e838584610ca9565b610a3783610dc4565b840190509392505050565b6000610a4d82610c04565b610a578185610c4b565b9350610a67818560208601610cb8565b610a7081610dc4565b840191505092915050565b6000610a88601983610c5c565b91507f496e76616c696420726563697069656e742061646472657373000000000000006000830152602082019050919050565b6000610ac8601f83610c5c565b91507f4d65737361676520636f6e74656e742063616e6e6f7420626520656d707479006000830152602082019050919050565b610b0481610c9f565b82525050565b60006040820190508181036000830152610b2481856109a0565b90508181036020830152610b388184610942565b90509392505050565b60006040820190508181036000830152610b5c818587610a15565b9050610b6b6020830184610afb565b949350505050565b60006020820190508181036000830152610b8c81610a7b565b9050919050565b60006020820190508181036000830152610bac81610abb565b9050919050565b6000602082019050610bc86000830184610afb565b92915050565b6000819050602082019050919050565b6000819050602082019050919050565b600081519050919050565b600081519050919050565b600081519050919050565b6000602082019050919050565b6000602082019050919050565b600082825260208201905092915050565b600082825260208201905092915050565b600082825260208201905092915050565b600082825260208201905092915050565b6000610c7882610c7f565b9050919050565b600073ffffffffffffffffffffffffffffffffffffffff82169050919050565b6000819050919050565b82818337600083830152505050565b60005b83811015610cd6578082015181840152602081019050610cbb565b83811115610ce5576000848401525b50505050565b60006002820490506001821680610d0357607f821691505b60208210811415610d1757610d16610d95565b5b50919050565b6000610d2882610c9f565b91507fffffffffffffffffffffffffffffffffffffffffffffffffffffffffffffffff821415610d5b57610d5a610d66565b5b600182019050919050565b7f4e487b7100000000000000000000000000000000000000000000000000000000600052601160045260246000fd5b7f4e487b7100000000000000000000000000000000000000000000000000000000600052602260045260246000fd5b6000601f19601f8301169050919050565b610dde81610c6d565b8114610de957600080fd5b5056fea26469706673582212208bab9522eb4f3ea0919e4571951c55da118704836f49926ff7e06bc7906616e164736f6c63430008000033",
  "immutableReferences": {},
  "source": "// SPDX-License-Identifier: MIT\npragma solidity ^0.8.0;\n\ncontract MyContract {\n    struct Message {\n        address from;\n        address to;\n        string content;\n        uint256 timestamp;\n    }\n\n    // \n    mapping(address => Message[]) private receivedMessages;\n\n    // \n    event MessageSent(address indexed from, address indexed to, string content, uint256 timestamp);\n    event DebugMessageStored(address indexed to, uint256 messageCount);\n\n    // \n    function sendMessage(address _to, string calldata _content) external {\n        require(_to != address(0), \"Invalid recipient address\");\n        require(bytes(_content).length > 0, \"Message content cannot be empty\");\n\n        // \n        Message memory newMessage = Message(msg.sender, _to, _content, block.timestamp);\n\n        // \n        receivedMessages[_to].push(newMessage);\n\n        // \n        emit MessageSent(msg.sender, _to, _content, block.timestamp);\n        // \n        emit DebugMessageStored(_to, receivedMessages[_to].length);\n    }\n\n    // \n    function receiveMessagesContentWithSender() external view returns (string[] memory, address[] memory) {\n        uint256 messageCount = receivedMessages[msg.sender].length;\n        string[] memory contents = new string[](messageCount);\n        address[] memory senders = new address[](messageCount);\n\n        for (uint256 i = 0; i < messageCount; i++) {\n            contents[i] = receivedMessages[msg.sender][i].content;\n            senders[i] = receivedMessages[msg.sender][i].from;\n        }\n\n        return (contents, senders);\n    }\n\n}\n",
  "sourcePath": "C:\\Users\\13621\\Desktop\\MyContractProject\\contracts\\MyContract.sol",
  "compiler": {
    "name": "solc",
    "version": "0.8.0+commit.c7dfd78e.Emscripten.clang"
  },
  "schemaVersion": "3.4.16",
  "updatedAt": "2024-12-02T15:44:18.226Z",
  "networkType": "ethereum",
  "devdoc": {
    "kind": "dev",
    "methods": {},
    "version": 1
  },
  "userdoc": {
    "kind": "user",
    "methods": {},
    "version": 1
  }
}