{
  "contractName": "OptimizedMyContract",
  "abi": [
    {
      "anonymous": false,
      "inputs": [
        {
          "indexed": true,
          "internalType": "address",
          "name": "from",
          "type": "address"
        },
        {
          "indexed": true,
          "internalType": "address",
          "name": "to",
          "type": "address"
        },
        {
          "indexed": false,
          "internalType": "string",
          "name": "content",
          "type": "string"
        },
        {
          "indexed": false,
          "internalType": "uint256",
          "name": "timestamp",
          "type": "uint256"
        }
      ],
      "name": "MessageSent",
      "type": "event"
    },
    {
      "inputs": [
        {
          "internalType": "address",
          "name": "_to",
          "type": "address"
        },
        {
          "internalType": "string",
          "name": "_content",
          "type": "string"
        }
      ],
      "name": "sendMessage",
      "outputs": [],
      "stateMutability": "nonpayable",
      "type": "function"
    },
    {
      "inputs": [],
      "name": "receiveMessagesContentWithSender",
      "outputs": [
        {
          "internalType": "string[]",
          "name": "",
          "type": "string[]"
        },
        {
          "internalType": "address[]",
          "name": "",
          "type": "address[]"
        }
      ],
      "stateMutability": "view",
      "type": "function",
      "constant": true
    }
  ],
  "bytecode": "0x608060405234801561001057600080fd5b50610ca2806100206000396000f3fe608060405234801561001057600080fd5b50600436106100365760003560e01c80632d2bbf461461003b578063de6f24bb1461005a575b600080fd5b610043610076565b60405161005192919061094f565b60405180910390f35b610074600480360381019061006f91906106f4565b610367565b005b6060806000600160003373ffffffffffffffffffffffffffffffffffffffff1673ffffffffffffffffffffffffffffffffffffffff16815260200190815260200160002054905060008167ffffffffffffffff8111156100ff577f4e487b7100000000000000000000000000000000000000000000000000000000600052604160045260246000fd5b60405190808252806020026020018201604052801561013257816020015b606081526020019060019003908161011d5790505b50905060008267ffffffffffffffff811115610177577f4e487b7100000000000000000000000000000000000000000000000000000000600052604160045260246000fd5b6040519080825280602002602001820160405280156101a55781602001602082028036833780820191505090505b50905060005b83811015610359576000803373ffffffffffffffffffffffffffffffffffffffff1673ffffffffffffffffffffffffffffffffffffffff1681526020019081526020016000206000828152602001908152602001600020600001805461021090610b6b565b80601f016020809104026020016040519081016040528092919081815260200182805461023c90610b6b565b80156102895780601f1061025e57610100808354040283529160200191610289565b820191906000526020600020905b81548152906001019060200180831161026c57829003601f168201915b50505050508382815181106102c7577f4e487b7100000000000000000000000000000000000000000000000000000000600052603260045260246000fd5b60200260200101819052503382828151811061030c577f4e487b7100000000000000000000000000000000000000000000000000000000600052603260045260246000fd5b602002602001019073ffffffffffffffffffffffffffffffffffffffff16908173ffffffffffffffffffffffffffffffffffffffff1681525050808061035190610b9d565b9150506101ab565b508181945094505050509091565b600073ffffffffffffffffffffffffffffffffffffffff168373ffffffffffffffffffffffffffffffffffffffff1614156103d7576040517f08c379a00000000000000000000000000000000000000000000000000000000081526004016103ce906109b8565b60405180910390fd5b6000828290501161041d576040517f08c379a0000000000000000000000000000000000000000000000000000000008152600401610414906109d8565b60405180910390fd5b6000600160008573ffffffffffffffffffffffffffffffffffffffff1673ffffffffffffffffffffffffffffffffffffffff168152602001908152602001600020549050604051806040016040528084848080601f016020809104026020016040519081016040528093929190818152602001838380828437600081840152601f19601f820116905080830192505050505050508152602001428152506000808673ffffffffffffffffffffffffffffffffffffffff1673ffffffffffffffffffffffffffffffffffffffff168152602001908152602001600020600083815260200190815260200160002060008201518160000190805190602001906105259291906105f2565b50602082015181600101559050506001816105409190610a97565b600160008673ffffffffffffffffffffffffffffffffffffffff1673ffffffffffffffffffffffffffffffffffffffff168152602001908152602001600020819055508373ffffffffffffffffffffffffffffffffffffffff163373ffffffffffffffffffffffffffffffffffffffff167f7e49d574e0305424aa957cb3f69b25f92aa58d53fdee73f05e40019210a70bce8585426040516105e493929190610986565b60405180910390a350505050565b8280546105fe90610b6b565b90600052602060002090601f0160209004810192826106205760008555610667565b82601f1061063957805160ff1916838001178555610667565b82800160010185558215610667579182015b8281111561066657825182559160200191906001019061064b565b5b5090506106749190610678565b5090565b5b80821115610691576000816000905550600101610679565b5090565b6000813590506106a481610c55565b92915050565b60008083601f8401126106bc57600080fd5b8235905067ffffffffffffffff8111156106d557600080fd5b6020830191508360018202830111156106ed57600080fd5b9250929050565b60008060006040848603121561070957600080fd5b600061071786828701610695565b935050602084013567ffffffffffffffff81111561073457600080fd5b610740868287016106aa565b92509250509250925092565b60006107588383610778565b60208301905092915050565b60006107708383610887565b905092915050565b61078181610aed565b82525050565b600061079282610a18565b61079c8185610a53565b93506107a7836109f8565b8060005b838110156107d85781516107bf888261074c565b97506107ca83610a39565b9250506001810190506107ab565b5085935050505092915050565b60006107f082610a23565b6107fa8185610a64565b93508360208202850161080c85610a08565b8060005b8581101561084857848403895281516108298582610764565b945061083483610a46565b925060208a01995050600181019050610810565b50829750879550505050505092915050565b60006108668385610a86565b9350610873838584610b29565b61087c83610c44565b840190509392505050565b600061089282610a2e565b61089c8185610a75565b93506108ac818560208601610b38565b6108b581610c44565b840191505092915050565b60006108cd601983610a86565b91507f496e76616c696420726563697069656e742061646472657373000000000000006000830152602082019050919050565b600061090d601f83610a86565b91507f4d65737361676520636f6e74656e742063616e6e6f7420626520656d707479006000830152602082019050919050565b61094981610b1f565b82525050565b6000604082019050818103600083015261096981856107e5565b9050818103602083015261097d8184610787565b90509392505050565b600060408201905081810360008301526109a181858761085a565b90506109b06020830184610940565b949350505050565b600060208201905081810360008301526109d1816108c0565b9050919050565b600060208201905081810360008301526109f181610900565b9050919050565b6000819050602082019050919050565b6000819050602082019050919050565b600081519050919050565b600081519050919050565b600081519050919050565b6000602082019050919050565b6000602082019050919050565b600082825260208201905092915050565b600082825260208201905092915050565b600082825260208201905092915050565b600082825260208201905092915050565b6000610aa282610b1f565b9150610aad83610b1f565b9250827fffffffffffffffffffffffffffffffffffffffffffffffffffffffffffffffff03821115610ae257610ae1610be6565b5b828201905092915050565b6000610af882610aff565b9050919050565b600073ffffffffffffffffffffffffffffffffffffffff82169050919050565b6000819050919050565b82818337600083830152505050565b60005b83811015610b56578082015181840152602081019050610b3b565b83811115610b65576000848401525b50505050565b60006002820490506001821680610b8357607f821691505b60208210811415610b9757610b96610c15565b5b50919050565b6000610ba882610b1f565b91507fffffffffffffffffffffffffffffffffffffffffffffffffffffffffffffffff821415610bdb57610bda610be6565b5b600182019050919050565b7f4e487b7100000000000000000000000000000000000000000000000000000000600052601160045260246000fd5b7f4e487b7100000000000000000000000000000000000000000000000000000000600052602260045260246000fd5b6000601f19601f8301169050919050565b610c5e81610aed565b8114610c6957600080fd5b5056fea2646970667358221220709300065c25799f70963cd9b3c833926ecfb64c8a8e18b755660fe5592990ac64736f6c63430008000033",
  "immutableReferences": {},
  "source": "// SPDX-License-Identifier: MIT\npragma solidity ^0.8.0;\n\ncontract OptimizedMyContract {\n    struct MessageMetadata {\n        string content;\n        uint256 timestamp;\n    }\n\n    mapping(address => mapping(uint256 => MessageMetadata)) private receivedMessages; // mapping\n    mapping(address => uint256) private receivedMessageCount; // \n\n    event MessageSent(address indexed from, address indexed to, string content, uint256 timestamp);\n\n    function sendMessage(address _to, string calldata _content) external {\n        require(_to != address(0), \"Invalid recipient address\");\n        require(bytes(_content).length > 0, \"Message content cannot be empty\");\n\n        uint256 currentCount = receivedMessageCount[_to];\n        receivedMessages[_to][currentCount] = MessageMetadata(_content, block.timestamp);\n        receivedMessageCount[_to] = currentCount + 1;\n\n        emit MessageSent(msg.sender, _to, _content, block.timestamp);\n    }\n\n    function receiveMessagesContentWithSender() external view returns (string[] memory, address[] memory) {\n        uint256 messageCount = receivedMessageCount[msg.sender];\n        string[] memory contents = new string[](messageCount);\n        address[] memory senders = new address[](messageCount);\n\n        for (uint256 i = 0; i < messageCount; i++) {\n            contents[i] = receivedMessages[msg.sender][i].content;\n            senders[i] = msg.sender; // \n        }\n\n        return (contents, senders);\n    }\n}\n",
  "sourcePath": "C:\\Users\\13621\\Desktop\\MyContractProject\\contracts\\OptimizedMyContract.sol",
  "compiler": {
    "name": "solc",
    "version": "0.8.0+commit.c7dfd78e.Emscripten.clang"
  },
  "schemaVersion": "3.4.16",
  "updatedAt": "2024-12-02T15:44:18.229Z",
  "networkType": "ethereum",
  "devdoc": {
    "kind": "dev",
    "methods": {},
    "version": 1
  },
  "userdoc": {
    "kind": "user",
    "methods": {},
    "version": 1
  }
}